:020000040800F2
:100000000050002091070008E1070008E107000800
:10001000E1070008E1070008E10700080000000010
:10002000000000000000000000000000E1070008E0
:10003000E107000800000000E1070008E1070008F0
:10004000E1070008E1070008E1070008E1070008F0
:10005000E1070008E107000805060008C1060008DE
:10006000E1070008E1070008E1070008E1070008D0
:10007000E1070008E1070008E1070008E1070008C0
:10008000E1070008E1070008E1070008E1070008B0
:10009000E1070008E1070008E1070008E1070008A0
:1000A000E1070008E1070008E1070008E107000890
:1000B000E1070008E1070008E1070008E107000880
:1000C000E1070008E1070008E1070008E107000870
:1000D000E1070008E1070008E1070008E107000860
:1000E000E1070008E107000800000000E107000840
:1000F000E1070008E1070008E1070008E107000840
:10010000E1070008E1070008E1070008E10700082F
:10011000E1070008E1070008E1070008E10700081F
:10012000E1070008E1070008E1070008E10700080F
:1001300010B5054C237833B9044B13B10448AFF321
:1001400000800123237010BD00000020000000008B
:100150002C08000808B5034B1BB103490348AFF353
:10016000008008BD00000000040000202C080008EA
:1001700080B483B000AF0346FB710B46BB711346DE
:100180007B71FB79022B00F2B680BB790F2B00F25A
:10019000B2807B790F2B00F2AE80BB79072B52D84F
:1001A000FB79022B37D0022B00F3A680002B02D064
:1001B000012B18D0A0E0534B1B68BA7992000F2195
:1001C00001FA02F2D24311464E4A0B4013604D4BE6
:1001D0001B687979BA79920001FA02F21146494A0C
:1001E0000B43136088E0484B1B68BA7992000F21DB
:1001F00001FA02F2D2431146434A0B401360424BCC
:100200001B687979BA79920001FA02F211463E4AE6
:100210000B43136070E03D4B1B68BA7992000F21CD
:1002200001FA02F2D2431146384A0B401360374BB1
:100230001B687979BA79920001FA02F21146334AC1
:100240000B43136058E0BB790F2B54D8BB79083BA4
:10025000BB71FB79022B36D0022B4DDC002B02D078
:10026000012B18D048E02A4B1B68BA7992000F2165
:1002700001FA02F2D2431146254A0B401360244B87
:100280001B687979BA79920001FA02F21146204A84
:100290000B43136030E01F4B1B68BA7992000F21AB
:1002A00001FA02F2D24311461A4A0B401360194B6D
:1002B0001B687979BA79920001FA02F21146154A5F
:1002C0000B43136018E0144B1B68BA7992000F219E
:1002D00001FA02F2D24311460F4A0B4013600E4B53
:1002E0001B687979BA79920001FA02F211460A4A3A
:1002F0000B43136000E000BF00BF0C37BD4680BC5D
:10030000704700BF00080140000C01400010014090
:1003100004080140040C01400410014080B483B083
:1003200000AF0346FB710B46BB7113467B71FB7933
:10033000022B61D8BB790F2B5ED87B79002B2DD196
:10034000FB79022B1ED0022B57DC002B02D0012B95
:100350000CD052E02B4B1B68BA79012101FA02F252
:10036000D2431146274A0B40136046E0264B1B68D8
:10037000BA79012101FA02F2D2431146224A0B4016
:1003800013603AE0214B1B68BA79012101FA02F2AD
:10039000D24311461D4A0B4013602EE07B79012B9E
:1003A0002AD1FB79022B1CD0022B26DC002B02D099
:1003B000012B0BD021E0134B1B68BA79012101FA04
:1003C00002F211460F4A0B43136016E00E4B1B68F6
:1003D000BA79012101FA02F211460B4A0B4313606C
:1003E0000BE00A4B1B68BA79012101FA02F21146AF
:1003F000064A0B43136000E000BF00BF0C37BD4648
:1004000080BC70470C0801400C0C01400C100140EE
:1004100080B485B000AF78600023FB6003E000BFCC
:10042000FB680133FB607B684FF4FA7202FB03F355
:10043000FA689A42F3D300BF00BF1437BD4680BCB0
:100440007047000080B500AF164800F0C9F800F012
:1004500041F90421022000F059F90221022000F0A4
:1004600055F902220D210220FFF782FE042200210D
:100470000020FFF77DFE012200210020FFF74EFF44
:1004800000F0D8F8062000F0E3F80D21062000F077
:1004900001F9002000F01CF80221002000F02EF8E5
:1004A000FEE700BFA904000880B500AF00220D21BF
:1004B0000220FFF733FF0A20FFF7AAFF01220D21D8
:1004C0000220FFF72BFF0A20FFF7A2FF00BF80BD2D
:1004D00080B483B000AF0346FB71074B1B68FA7909
:1004E000012101FA02F21146034A0B43136000BFD7
:1004F0000C37BD4680BC70470004014080B483B017
:1005000000AF03460A46FB711346BB71BB79032B50
:1005100032D0032B45DC012B02D0022B16D040E059
:100520002E4B9B68FA79012101FA02F211462B4AFF
:100530000B439360294BDB68FA79012101FA02F23F
:10054000D2431146254A0B40D36041E0234BDB6880
:10055000FA79012101FA02F21146204A0B43D360D5
:100560001E4B9B68FA79012101FA02F2D24311462F
:100570001A4A0B4093602BE0184B9B68FA790121D3
:1005800001FA02F21146154A0B439360134BDB68E4
:10059000FA79012101FA02F21146104A0B43D360A5
:1005A00016E00E4B9B68FA79012101FA02F2D24360
:1005B00011460A4A0B409360084BDB68FA79012127
:1005C00001FA02F2D2431146044A0B40D36000BF45
:1005D00000BF0C37BD4680BC704700BF000401401F
:1005E00080B483B000AF78607B68002B02D0044AEF
:1005F0007B68136000BF0C37BD4680BC704700BFEE
:100600001C00002080B500AF084B5B6903F00103BC
:10061000002B08D0054B5B69044A43F0010353618A
:10062000034B1B68984700BF80BD00BF000401401A
:100630001C00002080B400AF034B044A1A6000BFC6
:10064000BD4680BC704700BF0CED00E00005A05F18
:1006500080B483B000AF0346FB71FB791F2B05D834
:10066000FB7901229A40094B1A600AE0FB793F2B83
:1006700007D8FB79203BFB71FB7901229A40044BA0
:100680001A6000BF0C37BD4680BC704700E100E037
:1006900004E100E080B483B000AF03460A46FB717A
:1006A0001346BB71FB7903F1604303F56443BA79E8
:1006B0001201D2B21A7000BF0C37BD4680BC704721
:1006C00080B500AF024B1B68984700BF80BD00BFDC
:1006D0002000002080B400AF0A4B1B68094A43F099
:1006E00001031360084B1B68074A23F001031360E2
:1006F000054B1B68044A23F00203136000BFBD468C
:1007000080BC7047001002400410024080B483B0E7
:1007100000AF03460A46FB711346BB71BB791F2B22
:100720002AD8FB79022B1CD0022B25DC002B02D00F
:10073000012B0BD020E0134B1B68BA79012101FA81
:1007400002F211460F4A0B43136015E00E4B1B6873
:10075000BA79012101FA02F211460B4A0B431360E8
:100760000AE00A4B1B68BA79012101FA02F211462C
:10077000064A0B43136000BF00BF0C37BD4680BC68
:10078000704700BF141002401C10024018100240B5
:100790000D488546AFF300800C480D490D4A0023F3
:1007A00002E0D458C4500433C4188C42F9D30A4A26
:1007B0000A4C002301E013600432A242FBD300F094
:1007C00011F8FFF73FFEFEE7005000200000002078
:1007D000000000204C080008000000202400002039
:1007E000FEE7000070B500260C4D0D4C641BA410F4
:1007F000A64209D100F01AF800260A4D0A4C641BE3
:10080000A410A64205D170BD55F8043B98470136A7
:10081000EEE755F8043B98470136F2E74408000834
:10082000440800084408000848080008F8B500BF5C
:10083000F8BC08BC9E467047F8B500BFF8BC08BCC1
:040840009E46704719
:040844005501000852
:040848003101000872
:040000050800079157
:00000001FF
